{
  "contractName": "Notary",
  "abi": [
    {
      "inputs": [],
      "stateMutability": "nonpayable",
      "type": "constructor"
    },
    {
      "inputs": [],
      "name": "accountNotary",
      "outputs": [
        {
          "internalType": "address",
          "name": "",
          "type": "address"
        }
      ],
      "stateMutability": "view",
      "type": "function",
      "constant": true
    },
    {
      "inputs": [],
      "name": "fundsReceived",
      "outputs": [
        {
          "internalType": "bool",
          "name": "",
          "type": "bool"
        }
      ],
      "stateMutability": "view",
      "type": "function",
      "constant": true
    },
    {
      "inputs": [],
      "name": "recipient",
      "outputs": [
        {
          "internalType": "address",
          "name": "",
          "type": "address"
        }
      ],
      "stateMutability": "view",
      "type": "function",
      "constant": true
    },
    {
      "inputs": [],
      "name": "sender",
      "outputs": [
        {
          "internalType": "address",
          "name": "",
          "type": "address"
        }
      ],
      "stateMutability": "view",
      "type": "function",
      "constant": true
    },
    {
      "inputs": [],
      "name": "value",
      "outputs": [
        {
          "internalType": "uint256",
          "name": "",
          "type": "uint256"
        }
      ],
      "stateMutability": "view",
      "type": "function",
      "constant": true
    },
    {
      "inputs": [
        {
          "internalType": "address",
          "name": "_recipient",
          "type": "address"
        }
      ],
      "name": "receiveFunds",
      "outputs": [],
      "stateMutability": "payable",
      "type": "function",
      "payable": true
    },
    {
      "inputs": [],
      "name": "verifyFundsReceived",
      "outputs": [
        {
          "internalType": "bool",
          "name": "",
          "type": "bool"
        }
      ],
      "stateMutability": "view",
      "type": "function",
      "constant": true
    },
    {
      "inputs": [],
      "name": "transferContract",
      "outputs": [],
      "stateMutability": "payable",
      "type": "function",
      "payable": true
    },
    {
      "inputs": [
        {
          "internalType": "address payable",
          "name": "_recipient",
          "type": "address"
        },
        {
          "internalType": "uint256",
          "name": "_amount",
          "type": "uint256"
        }
      ],
      "name": "sendEther",
      "outputs": [],
      "stateMutability": "nonpayable",
      "type": "function"
    }
  ],
  "bytecode": "0x608060405234801561001057600080fd5b50336000806101000a81548173ffffffffffffffffffffffffffffffffffffffff021916908373ffffffffffffffffffffffffffffffffffffffff160217905550610a39806100606000396000f3fe6080604052600436106100865760003560e01c80637bc39341116100595780637bc39341146101375780639c69117c14610141578063c1756a2c1461016c578063c4c420c514610195578063df8926c6146101c057610086565b806311318b331461008b5780633fa4f245146100b657806366d003ac146100e157806367e404ce1461010c575b600080fd5b34801561009757600080fd5b506100a06101dc565b6040516100ad91906105dd565b60405180910390f35b3480156100c257600080fd5b506100cb6101ef565b6040516100d89190610611565b60405180910390f35b3480156100ed57600080fd5b506100f66101f5565b604051610103919061066d565b60405180910390f35b34801561011857600080fd5b5061012161021b565b60405161012e919061066d565b60405180910390f35b61013f610241565b005b34801561014d57600080fd5b50610156610243565b604051610163919061066d565b60405180910390f35b34801561017857600080fd5b50610193600480360381019061018e91906106f7565b610267565b005b3480156101a157600080fd5b506101aa610383565b6040516101b791906105dd565b60405180910390f35b6101da60048036038101906101d59190610763565b61039a565b005b600460009054906101000a900460ff1681565b60035481565b600260009054906101000a900473ffffffffffffffffffffffffffffffffffffffff1681565b600160009054906101000a900473ffffffffffffffffffffffffffffffffffffffff1681565b565b60008054906101000a900473ffffffffffffffffffffffffffffffffffffffff1681565b60008054906101000a900473ffffffffffffffffffffffffffffffffffffffff1673ffffffffffffffffffffffffffffffffffffffff163373ffffffffffffffffffffffffffffffffffffffff16146102f5576040517f08c379a00000000000000000000000000000000000000000000000000000000081526004016102ec906107ed565b60405180910390fd5b80471015610338576040517f08c379a000000000000000000000000000000000000000000000000000000000815260040161032f90610859565b60405180910390fd5b8173ffffffffffffffffffffffffffffffffffffffff166108fc829081150290604051600060405180830381858888f1935050505015801561037e573d6000803e3d6000fd5b505050565b6000600460009054906101000a900460ff16905090565b600034116103dd576040517f08c379a00000000000000000000000000000000000000000000000000000000081526004016103d4906108c5565b60405180910390fd5b600073ffffffffffffffffffffffffffffffffffffffff168173ffffffffffffffffffffffffffffffffffffffff16141561044d576040517f08c379a000000000000000000000000000000000000000000000000000000000815260040161044490610931565b60405180910390fd5b3460038190555033600160006101000a81548173ffffffffffffffffffffffffffffffffffffffff021916908373ffffffffffffffffffffffffffffffffffffffff16021790555080600260006101000a81548173ffffffffffffffffffffffffffffffffffffffff021916908373ffffffffffffffffffffffffffffffffffffffff16021790555060008060009054906101000a900473ffffffffffffffffffffffffffffffffffffffff1673ffffffffffffffffffffffffffffffffffffffff163460405161051d90610982565b60006040518083038185875af1925050503d806000811461055a576040519150601f19603f3d011682016040523d82523d6000602084013e61055f565b606091505b50509050806105a3576040517f08c379a000000000000000000000000000000000000000000000000000000000815260040161059a906109e3565b60405180910390fd5b6001600460006101000a81548160ff0219169083151502179055505050565b60008115159050919050565b6105d7816105c2565b82525050565b60006020820190506105f260008301846105ce565b92915050565b6000819050919050565b61060b816105f8565b82525050565b60006020820190506106266000830184610602565b92915050565b600073ffffffffffffffffffffffffffffffffffffffff82169050919050565b60006106578261062c565b9050919050565b6106678161064c565b82525050565b6000602082019050610682600083018461065e565b92915050565b600080fd5b60006106988261062c565b9050919050565b6106a88161068d565b81146106b357600080fd5b50565b6000813590506106c58161069f565b92915050565b6106d4816105f8565b81146106df57600080fd5b50565b6000813590506106f1816106cb565b92915050565b6000806040838503121561070e5761070d610688565b5b600061071c858286016106b6565b925050602061072d858286016106e2565b9150509250929050565b6107408161064c565b811461074b57600080fd5b50565b60008135905061075d81610737565b92915050565b60006020828403121561077957610778610688565b5b60006107878482850161074e565b91505092915050565b600082825260208201905092915050565b7f556e617574686f72697a65640000000000000000000000000000000000000000600082015250565b60006107d7600c83610790565b91506107e2826107a1565b602082019050919050565b60006020820190508181036000830152610806816107ca565b9050919050565b7f496e73756666696369656e742062616c616e636520696e20636f6e7472616374600082015250565b6000610843602083610790565b915061084e8261080d565b602082019050919050565b6000602082019050818103600083015261087281610836565b9050919050565b7f56616c7565206d7573742062652067726561746572207468616e203000000000600082015250565b60006108af601c83610790565b91506108ba82610879565b602082019050919050565b600060208201905081810360008301526108de816108a2565b9050919050565b7f496e76616c696420726563697069656e74206164647265737300000000000000600082015250565b600061091b601983610790565b9150610926826108e5565b602082019050919050565b6000602082019050818103600083015261094a8161090e565b9050919050565b600081905092915050565b50565b600061096c600083610951565b91506109778261095c565b600082019050919050565b600061098d8261095f565b9150819050919050565b7f5472616e73666572206661696c65640000000000000000000000000000000000600082015250565b60006109cd600f83610790565b91506109d882610997565b602082019050919050565b600060208201905081810360008301526109fc816109c0565b905091905056fea2646970667358221220ddcb514c490c2a0755777e84e168c5b0457f0c74c88d614c33ad41ce3f55e9ad64736f6c634300080b0033",
  "immutableReferences": {},
  "source": "// SPDX-License-Identifier: MIT\npragma solidity ^0.8.0;\n\ncontract Notary{\n\n    address public accountNotary; // Conta na blockchain do notrio\n    address public sender; // Conta que enviou na Blockchain A\n    address public recipient; // Conta destino na blockchain B\n    uint256 public value; // Valor a ser transferido\n    bool public fundsReceived;\n\n    constructor(){\n        accountNotary = msg.sender;\n    }\n\n    function receiveFunds(address _recipient) external payable {\n        require(msg.value > 0, \"Value must be greater than 0\");\n        require(_recipient != address(0), \"Invalid recipient address\");\n\n        value = msg.value;\n        sender = msg.sender;\n        recipient = _recipient;\n\n        (bool success, ) = payable(accountNotary).call{value: msg.value}(\"\");\n        require(success, \"Transfer failed\");\n\n        fundsReceived = true;\n    }\n\n     function verifyFundsReceived() external view returns(bool) {\n        return fundsReceived;\n    }\n\n    function transferContract() external payable {\n\n    }   \n\n    function sendEther(address payable _recipient, uint256 _amount) external {\n        // Verifica se o chamador da funo  o proprietrio do contrato\n        require(msg.sender == accountNotary, \"Unauthorized\");\n\n        // Transfere Ether para o destinatrio especificado\n        require(address(this).balance >= _amount, \"Insufficient balance in contract\");\n        _recipient.transfer(_amount);\n    }\n}",
  "sourcePath": "/home/itallo/Documentos/Meus-Projetos/Notary-Mechanism/contracts/Notary.sol",
  "compiler": {
    "name": "solc",
    "version": "0.8.11+commit.d7f03943.Emscripten.clang"
  },
  "schemaVersion": "3.4.4",
  "updatedAt": "2024-01-05T13:14:26.793Z",
  "networkType": "ethereum",
  "devdoc": {
    "kind": "dev",
    "methods": {},
    "version": 1
  },
  "userdoc": {
    "kind": "user",
    "methods": {},
    "version": 1
  }
}